{
  "contractName": "NTFContract",
  "abi": [
    {
      "inputs": [],
      "stateMutability": "nonpayable",
      "type": "constructor"
    },
    {
      "anonymous": false,
      "inputs": [
        {
          "indexed": true,
          "internalType": "address",
          "name": "account",
          "type": "address"
        },
        {
          "indexed": true,
          "internalType": "address",
          "name": "operator",
          "type": "address"
        },
        {
          "indexed": false,
          "internalType": "bool",
          "name": "approved",
          "type": "bool"
        }
      ],
      "name": "ApprovalForAll",
      "type": "event"
    },
    {
      "anonymous": false,
      "inputs": [
        {
          "indexed": true,
          "internalType": "address",
          "name": "previousOwner",
          "type": "address"
        },
        {
          "indexed": true,
          "internalType": "address",
          "name": "newOwner",
          "type": "address"
        }
      ],
      "name": "OwnershipTransferred",
      "type": "event"
    },
    {
      "anonymous": false,
      "inputs": [
        {
          "indexed": true,
          "internalType": "address",
          "name": "operator",
          "type": "address"
        },
        {
          "indexed": true,
          "internalType": "address",
          "name": "from",
          "type": "address"
        },
        {
          "indexed": true,
          "internalType": "address",
          "name": "to",
          "type": "address"
        },
        {
          "indexed": false,
          "internalType": "uint256[]",
          "name": "ids",
          "type": "uint256[]"
        },
        {
          "indexed": false,
          "internalType": "uint256[]",
          "name": "values",
          "type": "uint256[]"
        }
      ],
      "name": "TransferBatch",
      "type": "event"
    },
    {
      "anonymous": false,
      "inputs": [
        {
          "indexed": true,
          "internalType": "address",
          "name": "operator",
          "type": "address"
        },
        {
          "indexed": true,
          "internalType": "address",
          "name": "from",
          "type": "address"
        },
        {
          "indexed": true,
          "internalType": "address",
          "name": "to",
          "type": "address"
        },
        {
          "indexed": false,
          "internalType": "uint256",
          "name": "id",
          "type": "uint256"
        },
        {
          "indexed": false,
          "internalType": "uint256",
          "name": "value",
          "type": "uint256"
        }
      ],
      "name": "TransferSingle",
      "type": "event"
    },
    {
      "anonymous": false,
      "inputs": [
        {
          "indexed": false,
          "internalType": "string",
          "name": "value",
          "type": "string"
        },
        {
          "indexed": true,
          "internalType": "uint256",
          "name": "id",
          "type": "uint256"
        }
      ],
      "name": "URI",
      "type": "event"
    },
    {
      "inputs": [],
      "name": "ARTWORK",
      "outputs": [
        {
          "internalType": "uint256",
          "name": "",
          "type": "uint256"
        }
      ],
      "stateMutability": "view",
      "type": "function",
      "constant": true
    },
    {
      "inputs": [],
      "name": "PHOTO",
      "outputs": [
        {
          "internalType": "uint256",
          "name": "",
          "type": "uint256"
        }
      ],
      "stateMutability": "view",
      "type": "function",
      "constant": true
    },
    {
      "inputs": [
        {
          "internalType": "address",
          "name": "account",
          "type": "address"
        },
        {
          "internalType": "uint256",
          "name": "id",
          "type": "uint256"
        }
      ],
      "name": "balanceOf",
      "outputs": [
        {
          "internalType": "uint256",
          "name": "",
          "type": "uint256"
        }
      ],
      "stateMutability": "view",
      "type": "function",
      "constant": true
    },
    {
      "inputs": [
        {
          "internalType": "address[]",
          "name": "accounts",
          "type": "address[]"
        },
        {
          "internalType": "uint256[]",
          "name": "ids",
          "type": "uint256[]"
        }
      ],
      "name": "balanceOfBatch",
      "outputs": [
        {
          "internalType": "uint256[]",
          "name": "",
          "type": "uint256[]"
        }
      ],
      "stateMutability": "view",
      "type": "function",
      "constant": true
    },
    {
      "inputs": [
        {
          "internalType": "address",
          "name": "account",
          "type": "address"
        },
        {
          "internalType": "address",
          "name": "operator",
          "type": "address"
        }
      ],
      "name": "isApprovedForAll",
      "outputs": [
        {
          "internalType": "bool",
          "name": "",
          "type": "bool"
        }
      ],
      "stateMutability": "view",
      "type": "function",
      "constant": true
    },
    {
      "inputs": [],
      "name": "owner",
      "outputs": [
        {
          "internalType": "address",
          "name": "",
          "type": "address"
        }
      ],
      "stateMutability": "view",
      "type": "function",
      "constant": true
    },
    {
      "inputs": [],
      "name": "renounceOwnership",
      "outputs": [],
      "stateMutability": "nonpayable",
      "type": "function"
    },
    {
      "inputs": [
        {
          "internalType": "address",
          "name": "from",
          "type": "address"
        },
        {
          "internalType": "address",
          "name": "to",
          "type": "address"
        },
        {
          "internalType": "uint256[]",
          "name": "ids",
          "type": "uint256[]"
        },
        {
          "internalType": "uint256[]",
          "name": "amounts",
          "type": "uint256[]"
        },
        {
          "internalType": "bytes",
          "name": "data",
          "type": "bytes"
        }
      ],
      "name": "safeBatchTransferFrom",
      "outputs": [],
      "stateMutability": "nonpayable",
      "type": "function"
    },
    {
      "inputs": [
        {
          "internalType": "address",
          "name": "from",
          "type": "address"
        },
        {
          "internalType": "address",
          "name": "to",
          "type": "address"
        },
        {
          "internalType": "uint256",
          "name": "id",
          "type": "uint256"
        },
        {
          "internalType": "uint256",
          "name": "amount",
          "type": "uint256"
        },
        {
          "internalType": "bytes",
          "name": "data",
          "type": "bytes"
        }
      ],
      "name": "safeTransferFrom",
      "outputs": [],
      "stateMutability": "nonpayable",
      "type": "function"
    },
    {
      "inputs": [
        {
          "internalType": "address",
          "name": "operator",
          "type": "address"
        },
        {
          "internalType": "bool",
          "name": "approved",
          "type": "bool"
        }
      ],
      "name": "setApprovalForAll",
      "outputs": [],
      "stateMutability": "nonpayable",
      "type": "function"
    },
    {
      "inputs": [
        {
          "internalType": "bytes4",
          "name": "interfaceId",
          "type": "bytes4"
        }
      ],
      "name": "supportsInterface",
      "outputs": [
        {
          "internalType": "bool",
          "name": "",
          "type": "bool"
        }
      ],
      "stateMutability": "view",
      "type": "function",
      "constant": true
    },
    {
      "inputs": [
        {
          "internalType": "address",
          "name": "newOwner",
          "type": "address"
        }
      ],
      "name": "transferOwnership",
      "outputs": [],
      "stateMutability": "nonpayable",
      "type": "function"
    },
    {
      "inputs": [
        {
          "internalType": "uint256",
          "name": "",
          "type": "uint256"
        }
      ],
      "name": "uri",
      "outputs": [
        {
          "internalType": "string",
          "name": "",
          "type": "string"
        }
      ],
      "stateMutability": "view",
      "type": "function",
      "constant": true
    },
    {
      "inputs": [
        {
          "internalType": "address",
          "name": "account",
          "type": "address"
        },
        {
          "internalType": "uint256",
          "name": "id",
          "type": "uint256"
        },
        {
          "internalType": "uint256",
          "name": "amount",
          "type": "uint256"
        }
      ],
      "name": "mint",
      "outputs": [],
      "stateMutability": "nonpayable",
      "type": "function"
    },
    {
      "inputs": [
        {
          "internalType": "address",
          "name": "account",
          "type": "address"
        },
        {
          "internalType": "uint256",
          "name": "id",
          "type": "uint256"
        },
        {
          "internalType": "uint256",
          "name": "amount",
          "type": "uint256"
        }
      ],
      "name": "burn",
      "outputs": [],
      "stateMutability": "nonpayable",
      "type": "function"
    }
  ],
  "bytecode": "0x60806040523480156200001157600080fd5b506040518060600160405280602d815260200162003b6c602d91396200003d81620000ae60201b60201c565b506200005e62000052620000ca60201b60201c565b620000d260201b60201c565b620000833360006001604051806020016040528060008152506200019860201b60201c565b620000a83360016002604051806020016040528060008152506200019860201b60201c565b62000ce0565b8060029080519060200190620000c692919062000631565b5050565b600033905090565b6000600360009054906101000a900473ffffffffffffffffffffffffffffffffffffffff16905081600360006101000a81548173ffffffffffffffffffffffffffffffffffffffff021916908373ffffffffffffffffffffffffffffffffffffffff1602179055508173ffffffffffffffffffffffffffffffffffffffff168173ffffffffffffffffffffffffffffffffffffffff167f8be0079c531659141344cd1fd0a4f28419497f9722a3daafe3b4186f6b6457e060405160405180910390a35050565b600073ffffffffffffffffffffffffffffffffffffffff168473ffffffffffffffffffffffffffffffffffffffff1614156200020b576040517f08c379a00000000000000000000000000000000000000000000000000000000081526004016200020290620009cc565b60405180910390fd5b60006200021d620000ca60201b60201c565b9050620002568160008762000238886200035d60201b60201c565b62000249886200035d60201b60201c565b876200042660201b60201c565b8260008086815260200190815260200160002060008773ffffffffffffffffffffffffffffffffffffffff1673ffffffffffffffffffffffffffffffffffffffff1681526020019081526020016000206000828254620002b7919062000a53565b925050819055508473ffffffffffffffffffffffffffffffffffffffff16600073ffffffffffffffffffffffffffffffffffffffff168273ffffffffffffffffffffffffffffffffffffffff167fc3d58168c5ae7397731d063d5bbf3d657854427343f4c083240f7aacaa2d0f62878760405162000337929190620009ee565b60405180910390a462000356816000878787876200042e60201b60201c565b5050505050565b60606000600167ffffffffffffffff811115620003a3577f4e487b7100000000000000000000000000000000000000000000000000000000600052604160045260246000fd5b604051908082528060200260200182016040528015620003d25781602001602082028036833780820191505090505b509050828160008151811062000411577f4e487b7100000000000000000000000000000000000000000000000000000000600052603260045260246000fd5b60200260200101818152505080915050919050565b505050505050565b6200045a8473ffffffffffffffffffffffffffffffffffffffff166200061e60201b62000cb91760201c565b1562000616578373ffffffffffffffffffffffffffffffffffffffff1663f23a6e6187878686866040518663ffffffff1660e01b8152600401620004a395949392919062000900565b602060405180830381600087803b158015620004be57600080fd5b505af1925050508015620004f257506040513d601f19601f82011682018060405250810190620004ef9190620006f8565b60015b6200058a576200050162000c02565b806200050e57506200054d565b806040517f08c379a000000000000000000000000000000000000000000000000000000000815260040162000544919062000964565b60405180910390fd5b6040517f08c379a0000000000000000000000000000000000000000000000000000000008152600401620005819062000988565b60405180910390fd5b63f23a6e6160e01b7bffffffffffffffffffffffffffffffffffffffffffffffffffffffff1916817bffffffffffffffffffffffffffffffffffffffffffffffffffffffff19161462000614576040517f08c379a00000000000000000000000000000000000000000000000000000000081526004016200060b90620009aa565b60405180910390fd5b505b505050505050565b600080823b905060008111915050919050565b8280546200063f9062000b50565b90600052602060002090601f016020900481019282620006635760008555620006af565b82601f106200067e57805160ff1916838001178555620006af565b82800160010185558215620006af579182015b82811115620006ae57825182559160200191906001019062000691565b5b509050620006be9190620006c2565b5090565b5b80821115620006dd576000816000905550600101620006c3565b5090565b600081519050620006f28162000cc6565b92915050565b6000602082840312156200070b57600080fd5b60006200071b84828501620006e1565b91505092915050565b6200072f8162000ab0565b82525050565b6000620007428262000a1b565b6200074e818562000a31565b93506200076081856020860162000b1a565b6200076b8162000be4565b840191505092915050565b6000620007838262000a26565b6200078f818562000a42565b9350620007a181856020860162000b1a565b620007ac8162000be4565b840191505092915050565b6000620007c660348362000a42565b91507f455243313135353a207472616e7366657220746f206e6f6e204552433131353560008301527f526563656976657220696d706c656d656e7465720000000000000000000000006020830152604082019050919050565b60006200082e60288362000a42565b91507f455243313135353a204552433131353552656365697665722072656a6563746560008301527f6420746f6b656e730000000000000000000000000000000000000000000000006020830152604082019050919050565b60006200089660218362000a42565b91507f455243313135353a206d696e7420746f20746865207a65726f2061646472657360008301527f73000000000000000000000000000000000000000000000000000000000000006020830152604082019050919050565b620008fa8162000b10565b82525050565b600060a08201905062000917600083018862000724565b62000926602083018762000724565b620009356040830186620008ef565b620009446060830185620008ef565b818103608083015262000958818462000735565b90509695505050505050565b6000602082019050818103600083015262000980818462000776565b905092915050565b60006020820190508181036000830152620009a381620007b7565b9050919050565b60006020820190508181036000830152620009c5816200081f565b9050919050565b60006020820190508181036000830152620009e78162000887565b9050919050565b600060408201905062000a056000830185620008ef565b62000a146020830184620008ef565b9392505050565b600081519050919050565b600081519050919050565b600082825260208201905092915050565b600082825260208201905092915050565b600062000a608262000b10565b915062000a6d8362000b10565b9250827fffffffffffffffffffffffffffffffffffffffffffffffffffffffffffffffff0382111562000aa55762000aa462000b86565b5b828201905092915050565b600062000abd8262000af0565b9050919050565b60007fffffffff0000000000000000000000000000000000000000000000000000000082169050919050565b600073ffffffffffffffffffffffffffffffffffffffff82169050919050565b6000819050919050565b60005b8381101562000b3a57808201518184015260208101905062000b1d565b8381111562000b4a576000848401525b50505050565b6000600282049050600182168062000b6957607f821691505b6020821081141562000b805762000b7f62000bb5565b5b50919050565b7f4e487b7100000000000000000000000000000000000000000000000000000000600052601160045260246000fd5b7f4e487b7100000000000000000000000000000000000000000000000000000000600052602260045260246000fd5b6000601f19601f8301169050919050565b60008160e01c9050919050565b600060443d101562000c145762000cc3565b60046000803e62000c2760005162000bf5565b6308c379a0811462000c3a575062000cc3565b60405160043d036004823e80513d602482011167ffffffffffffffff8211171562000c685750505062000cc3565b808201805167ffffffffffffffff81111562000c8957505050505062000cc3565b8060208301013d850181111562000ca65750505050505062000cc3565b62000cb18262000be4565b60208401016040528296505050505050505b90565b62000cd18162000ac4565b811462000cdd57600080fd5b50565b612e7c8062000cf06000396000f3fe608060405234801561001057600080fd5b50600436106100f45760003560e01c8063715018a611610097578063e985e9c511610066578063e985e9c514610271578063f242432a146102a1578063f2fde38b146102bd578063f5298aca146102d9576100f4565b8063715018a61461020f5780638da5cb5b14610219578063a22cb46514610237578063d016c55414610253576100f4565b8063156e29f6116100d3578063156e29f61461018957806320f708b9146101a55780632eb2c2d6146101c35780634e1273f4146101df576100f4565b8062fdd58e146100f957806301ffc9a7146101295780630e89341c14610159575b600080fd5b610113600480360381019061010e9190611e5d565b6102f5565b6040516101209190612994565b60405180910390f35b610143600480360381019061013e9190611f54565b6103be565b6040516101509190612797565b60405180910390f35b610173600480360381019061016e9190611fa6565b6104a0565b60405161018091906127b2565b60405180910390f35b6101a3600480360381019061019e9190611e99565b610534565b005b6101ad6105b5565b6040516101ba9190612994565b60405180910390f35b6101dd60048036038101906101d89190611cd3565b6105ba565b005b6101f960048036038101906101f49190611ee8565b61065b565b604051610206919061273e565b60405180910390f35b61021761080c565b005b610221610894565b60405161022e9190612661565b60405180910390f35b610251600480360381019061024c9190611e21565b6108be565b005b61025b610a3f565b6040516102689190612994565b60405180910390f35b61028b60048036038101906102869190611c97565b610a44565b6040516102989190612797565b60405180910390f35b6102bb60048036038101906102b69190611d92565b610ad8565b005b6102d760048036038101906102d29190611c6e565b610b79565b005b6102f360048036038101906102ee9190611e99565b610c71565b005b60008073ffffffffffffffffffffffffffffffffffffffff168373ffffffffffffffffffffffffffffffffffffffff161415610366576040517f08c379a000000000000000000000000000000000000000000000000000000000815260040161035d90612814565b60405180910390fd5b60008083815260200190815260200160002060008473ffffffffffffffffffffffffffffffffffffffff1673ffffffffffffffffffffffffffffffffffffffff16815260200190815260200160002054905092915050565b60007fd9b67a26000000000000000000000000000000000000000000000000000000007bffffffffffffffffffffffffffffffffffffffffffffffffffffffff1916827bffffffffffffffffffffffffffffffffffffffffffffffffffffffff1916148061048957507f0e89341c000000000000000000000000000000000000000000000000000000007bffffffffffffffffffffffffffffffffffffffffffffffffffffffff1916827bffffffffffffffffffffffffffffffffffffffffffffffffffffffff1916145b80610499575061049882610ccc565b5b9050919050565b6060600280546104af90612c0e565b80601f01602080910402602001604051908101604052809291908181526020018280546104db90612c0e565b80156105285780601f106104fd57610100808354040283529160200191610528565b820191906000526020600020905b81548152906001019060200180831161050b57829003601f168201915b50505050509050919050565b61053c610d36565b73ffffffffffffffffffffffffffffffffffffffff1661055a610894565b73ffffffffffffffffffffffffffffffffffffffff16146105b0576040517f08c379a00000000000000000000000000000000000000000000000000000000081526004016105a790612914565b60405180910390fd5b505050565b600181565b6105c2610d36565b73ffffffffffffffffffffffffffffffffffffffff168573ffffffffffffffffffffffffffffffffffffffff161480610608575061060785610602610d36565b610a44565b5b610647576040517f08c379a000000000000000000000000000000000000000000000000000000000815260040161063e906128b4565b60405180910390fd5b6106548585858585610d3e565b5050505050565b606081518351146106a1576040517f08c379a000000000000000000000000000000000000000000000000000000000815260040161069890612954565b60405180910390fd5b6000835167ffffffffffffffff8111156106e4577f4e487b7100000000000000000000000000000000000000000000000000000000600052604160045260246000fd5b6040519080825280602002602001820160405280156107125781602001602082028036833780820191505090505b50905060005b8451811015610801576107ab85828151811061075d577f4e487b7100000000000000000000000000000000000000000000000000000000600052603260045260246000fd5b602002602001015185838151811061079e577f4e487b7100000000000000000000000000000000000000000000000000000000600052603260045260246000fd5b60200260200101516102f5565b8282815181106107e4577f4e487b7100000000000000000000000000000000000000000000000000000000600052603260045260246000fd5b602002602001018181525050806107fa90612c40565b9050610718565b508091505092915050565b610814610d36565b73ffffffffffffffffffffffffffffffffffffffff16610832610894565b73ffffffffffffffffffffffffffffffffffffffff1614610888576040517f08c379a000000000000000000000000000000000000000000000000000000000815260040161087f90612914565b60405180910390fd5b610892600061109e565b565b6000600360009054906101000a900473ffffffffffffffffffffffffffffffffffffffff16905090565b8173ffffffffffffffffffffffffffffffffffffffff166108dd610d36565b73ffffffffffffffffffffffffffffffffffffffff161415610934576040517f08c379a000000000000000000000000000000000000000000000000000000000815260040161092b90612934565b60405180910390fd5b8060016000610941610d36565b73ffffffffffffffffffffffffffffffffffffffff1673ffffffffffffffffffffffffffffffffffffffff16815260200190815260200160002060008473ffffffffffffffffffffffffffffffffffffffff1673ffffffffffffffffffffffffffffffffffffffff16815260200190815260200160002060006101000a81548160ff0219169083151502179055508173ffffffffffffffffffffffffffffffffffffffff166109ee610d36565b73ffffffffffffffffffffffffffffffffffffffff167f17307eab39ab6107e8899845ad3d59bd9653f200f220920489ca2b5937696c3183604051610a339190612797565b60405180910390a35050565b600081565b6000600160008473ffffffffffffffffffffffffffffffffffffffff1673ffffffffffffffffffffffffffffffffffffffff16815260200190815260200160002060008373ffffffffffffffffffffffffffffffffffffffff1673ffffffffffffffffffffffffffffffffffffffff16815260200190815260200160002060009054906101000a900460ff16905092915050565b610ae0610d36565b73ffffffffffffffffffffffffffffffffffffffff168573ffffffffffffffffffffffffffffffffffffffff161480610b265750610b2585610b20610d36565b610a44565b5b610b65576040517f08c379a0000000000000000000000000000000000000000000000000000000008152600401610b5c90612874565b60405180910390fd5b610b728585858585611164565b5050505050565b610b81610d36565b73ffffffffffffffffffffffffffffffffffffffff16610b9f610894565b73ffffffffffffffffffffffffffffffffffffffff1614610bf5576040517f08c379a0000000000000000000000000000000000000000000000000000000008152600401610bec90612914565b60405180910390fd5b600073ffffffffffffffffffffffffffffffffffffffff168173ffffffffffffffffffffffffffffffffffffffff161415610c65576040517f08c379a0000000000000000000000000000000000000000000000000000000008152600401610c5c90612834565b60405180910390fd5b610c6e8161109e565b50565b8273ffffffffffffffffffffffffffffffffffffffff163373ffffffffffffffffffffffffffffffffffffffff1614610ca957600080fd5b610cb48383836113e6565b505050565b600080823b905060008111915050919050565b60007f01ffc9a7000000000000000000000000000000000000000000000000000000007bffffffffffffffffffffffffffffffffffffffffffffffffffffffff1916827bffffffffffffffffffffffffffffffffffffffffffffffffffffffff1916149050919050565b600033905090565b8151835114610d82576040517f08c379a0000000000000000000000000000000000000000000000000000000008152600401610d7990612974565b60405180910390fd5b600073ffffffffffffffffffffffffffffffffffffffff168473ffffffffffffffffffffffffffffffffffffffff161415610df2576040517f08c379a0000000000000000000000000000000000000000000000000000000008152600401610de990612894565b60405180910390fd5b6000610dfc610d36565b9050610e0c818787878787611603565b60005b8451811015611009576000858281518110610e53577f4e487b7100000000000000000000000000000000000000000000000000000000600052603260045260246000fd5b602002602001015190506000858381518110610e98577f4e487b7100000000000000000000000000000000000000000000000000000000600052603260045260246000fd5b60200260200101519050600080600084815260200190815260200160002060008b73ffffffffffffffffffffffffffffffffffffffff1673ffffffffffffffffffffffffffffffffffffffff16815260200190815260200160002054905081811015610f39576040517f08c379a0000000000000000000000000000000000000000000000000000000008152600401610f30906128f4565b60405180910390fd5b81810360008085815260200190815260200160002060008c73ffffffffffffffffffffffffffffffffffffffff1673ffffffffffffffffffffffffffffffffffffffff168152602001908152602001600020819055508160008085815260200190815260200160002060008b73ffffffffffffffffffffffffffffffffffffffff1673ffffffffffffffffffffffffffffffffffffffff1681526020019081526020016000206000828254610fee9190612b02565b925050819055505050508061100290612c40565b9050610e0f565b508473ffffffffffffffffffffffffffffffffffffffff168673ffffffffffffffffffffffffffffffffffffffff168273ffffffffffffffffffffffffffffffffffffffff167f4a39dc06d4c0dbc64b70af90fd698a233a518aa5d07e595d983b8c0526c8f7fb8787604051611080929190612760565b60405180910390a461109681878787878761160b565b505050505050565b6000600360009054906101000a900473ffffffffffffffffffffffffffffffffffffffff16905081600360006101000a81548173ffffffffffffffffffffffffffffffffffffffff021916908373ffffffffffffffffffffffffffffffffffffffff1602179055508173ffffffffffffffffffffffffffffffffffffffff168173ffffffffffffffffffffffffffffffffffffffff167f8be0079c531659141344cd1fd0a4f28419497f9722a3daafe3b4186f6b6457e060405160405180910390a35050565b600073ffffffffffffffffffffffffffffffffffffffff168473ffffffffffffffffffffffffffffffffffffffff1614156111d4576040517f08c379a00000000000000000000000000000000000000000000000000000000081526004016111cb90612894565b60405180910390fd5b60006111de610d36565b90506111fe8187876111ef886117db565b6111f8886117db565b87611603565b600080600086815260200190815260200160002060008873ffffffffffffffffffffffffffffffffffffffff1673ffffffffffffffffffffffffffffffffffffffff16815260200190815260200160002054905083811015611295576040517f08c379a000000000000000000000000000000000000000000000000000000000815260040161128c906128f4565b60405180910390fd5b83810360008087815260200190815260200160002060008973ffffffffffffffffffffffffffffffffffffffff1673ffffffffffffffffffffffffffffffffffffffff168152602001908152602001600020819055508360008087815260200190815260200160002060008873ffffffffffffffffffffffffffffffffffffffff1673ffffffffffffffffffffffffffffffffffffffff168152602001908152602001600020600082825461134a9190612b02565b925050819055508573ffffffffffffffffffffffffffffffffffffffff168773ffffffffffffffffffffffffffffffffffffffff168373ffffffffffffffffffffffffffffffffffffffff167fc3d58168c5ae7397731d063d5bbf3d657854427343f4c083240f7aacaa2d0f6288886040516113c79291906129af565b60405180910390a46113dd8288888888886118a1565b50505050505050565b600073ffffffffffffffffffffffffffffffffffffffff168373ffffffffffffffffffffffffffffffffffffffff161415611456576040517f08c379a000000000000000000000000000000000000000000000000000000000815260040161144d906128d4565b60405180910390fd5b6000611460610d36565b905061149081856000611472876117db565b61147b876117db565b60405180602001604052806000815250611603565b600080600085815260200190815260200160002060008673ffffffffffffffffffffffffffffffffffffffff1673ffffffffffffffffffffffffffffffffffffffff16815260200190815260200160002054905082811015611527576040517f08c379a000000000000000000000000000000000000000000000000000000000815260040161151e90612854565b60405180910390fd5b82810360008086815260200190815260200160002060008773ffffffffffffffffffffffffffffffffffffffff1673ffffffffffffffffffffffffffffffffffffffff16815260200190815260200160002081905550600073ffffffffffffffffffffffffffffffffffffffff168573ffffffffffffffffffffffffffffffffffffffff168373ffffffffffffffffffffffffffffffffffffffff167fc3d58168c5ae7397731d063d5bbf3d657854427343f4c083240f7aacaa2d0f6287876040516115f49291906129af565b60405180910390a45050505050565b505050505050565b61162a8473ffffffffffffffffffffffffffffffffffffffff16610cb9565b156117d3578373ffffffffffffffffffffffffffffffffffffffff1663bc197c8187878686866040518663ffffffff1660e01b815260040161167095949392919061267c565b602060405180830381600087803b15801561168a57600080fd5b505af19250505080156116bb57506040513d601f19601f820116820180604052508101906116b89190611f7d565b60015b61174a576116c7612d34565b806116d2575061170f565b806040517f08c379a000000000000000000000000000000000000000000000000000000000815260040161170691906127b2565b60405180910390fd5b6040517f08c379a0000000000000000000000000000000000000000000000000000000008152600401611741906127d4565b60405180910390fd5b63bc197c8160e01b7bffffffffffffffffffffffffffffffffffffffffffffffffffffffff1916817bffffffffffffffffffffffffffffffffffffffffffffffffffffffff1916146117d1576040517f08c379a00000000000000000000000000000000000000000000000000000000081526004016117c8906127f4565b60405180910390fd5b505b505050505050565b60606000600167ffffffffffffffff811115611820577f4e487b7100000000000000000000000000000000000000000000000000000000600052604160045260246000fd5b60405190808252806020026020018201604052801561184e5781602001602082028036833780820191505090505b509050828160008151811061188c577f4e487b7100000000000000000000000000000000000000000000000000000000600052603260045260246000fd5b60200260200101818152505080915050919050565b6118c08473ffffffffffffffffffffffffffffffffffffffff16610cb9565b15611a69578373ffffffffffffffffffffffffffffffffffffffff1663f23a6e6187878686866040518663ffffffff1660e01b81526004016119069594939291906126e4565b602060405180830381600087803b15801561192057600080fd5b505af192505050801561195157506040513d601f19601f8201168201806040525081019061194e9190611f7d565b60015b6119e05761195d612d34565b8061196857506119a5565b806040517f08c379a000000000000000000000000000000000000000000000000000000000815260040161199c91906127b2565b60405180910390fd5b6040517f08c379a00000000000000000000000000000000000000000000000000000000081526004016119d7906127d4565b60405180910390fd5b63f23a6e6160e01b7bffffffffffffffffffffffffffffffffffffffffffffffffffffffff1916817bffffffffffffffffffffffffffffffffffffffffffffffffffffffff191614611a67576040517f08c379a0000000000000000000000000000000000000000000000000000000008152600401611a5e906127f4565b60405180910390fd5b505b505050505050565b6000611a84611a7f84612a09565b6129d8565b90508083825260208201905082856020860282011115611aa357600080fd5b60005b85811015611ad35781611ab98882611b87565b845260208401935060208301925050600181019050611aa6565b5050509392505050565b6000611af0611aeb84612a35565b6129d8565b90508083825260208201905082856020860282011115611b0f57600080fd5b60005b85811015611b3f5781611b258882611c59565b845260208401935060208301925050600181019050611b12565b5050509392505050565b6000611b5c611b5784612a61565b6129d8565b905082815260208101848484011115611b7457600080fd5b611b7f848285612bcc565b509392505050565b600081359050611b9681612dea565b92915050565b600082601f830112611bad57600080fd5b8135611bbd848260208601611a71565b91505092915050565b600082601f830112611bd757600080fd5b8135611be7848260208601611add565b91505092915050565b600081359050611bff81612e01565b92915050565b600081359050611c1481612e18565b92915050565b600081519050611c2981612e18565b92915050565b600082601f830112611c4057600080fd5b8135611c50848260208601611b49565b91505092915050565b600081359050611c6881612e2f565b92915050565b600060208284031215611c8057600080fd5b6000611c8e84828501611b87565b91505092915050565b60008060408385031215611caa57600080fd5b6000611cb885828601611b87565b9250506020611cc985828601611b87565b9150509250929050565b600080600080600060a08688031215611ceb57600080fd5b6000611cf988828901611b87565b9550506020611d0a88828901611b87565b945050604086013567ffffffffffffffff811115611d2757600080fd5b611d3388828901611bc6565b935050606086013567ffffffffffffffff811115611d5057600080fd5b611d5c88828901611bc6565b925050608086013567ffffffffffffffff811115611d7957600080fd5b611d8588828901611c2f565b9150509295509295909350565b600080600080600060a08688031215611daa57600080fd5b6000611db888828901611b87565b9550506020611dc988828901611b87565b9450506040611dda88828901611c59565b9350506060611deb88828901611c59565b925050608086013567ffffffffffffffff811115611e0857600080fd5b611e1488828901611c2f565b9150509295509295909350565b60008060408385031215611e3457600080fd5b6000611e4285828601611b87565b9250506020611e5385828601611bf0565b9150509250929050565b60008060408385031215611e7057600080fd5b6000611e7e85828601611b87565b9250506020611e8f85828601611c59565b9150509250929050565b600080600060608486031215611eae57600080fd5b6000611ebc86828701611b87565b9350506020611ecd86828701611c59565b9250506040611ede86828701611c59565b9150509250925092565b60008060408385031215611efb57600080fd5b600083013567ffffffffffffffff811115611f1557600080fd5b611f2185828601611b9c565b925050602083013567ffffffffffffffff811115611f3e57600080fd5b611f4a85828601611bc6565b9150509250929050565b600060208284031215611f6657600080fd5b6000611f7484828501611c05565b91505092915050565b600060208284031215611f8f57600080fd5b6000611f9d84828501611c1a565b91505092915050565b600060208284031215611fb857600080fd5b6000611fc684828501611c59565b91505092915050565b6000611fdb8383612643565b60208301905092915050565b611ff081612b58565b82525050565b600061200182612aa1565b61200b8185612acf565b935061201683612a91565b8060005b8381101561204757815161202e8882611fcf565b975061203983612ac2565b92505060018101905061201a565b5085935050505092915050565b61205d81612b6a565b82525050565b600061206e82612aac565b6120788185612ae0565b9350612088818560208601612bdb565b61209181612d16565b840191505092915050565b60006120a782612ab7565b6120b18185612af1565b93506120c1818560208601612bdb565b6120ca81612d16565b840191505092915050565b60006120e2603483612af1565b91507f455243313135353a207472616e7366657220746f206e6f6e204552433131353560008301527f526563656976657220696d706c656d656e7465720000000000000000000000006020830152604082019050919050565b6000612148602883612af1565b91507f455243313135353a204552433131353552656365697665722072656a6563746560008301527f6420746f6b656e730000000000000000000000000000000000000000000000006020830152604082019050919050565b60006121ae602b83612af1565b91507f455243313135353a2062616c616e636520717565727920666f7220746865207a60008301527f65726f20616464726573730000000000000000000000000000000000000000006020830152604082019050919050565b6000612214602683612af1565b91507f4f776e61626c653a206e6577206f776e657220697320746865207a65726f206160008301527f64647265737300000000000000000000000000000000000000000000000000006020830152604082019050919050565b600061227a602483612af1565b91507f455243313135353a206275726e20616d6f756e7420657863656564732062616c60008301527f616e6365000000000000000000000000000000000000000000000000000000006020830152604082019050919050565b60006122e0602983612af1565b91507f455243313135353a2063616c6c6572206973206e6f74206f776e6572206e6f7260008301527f20617070726f76656400000000000000000000000000000000000000000000006020830152604082019050919050565b6000612346602583612af1565b91507f455243313135353a207472616e7366657220746f20746865207a65726f20616460008301527f64726573730000000000000000000000000000000000000000000000000000006020830152604082019050919050565b60006123ac603283612af1565b91507f455243313135353a207472616e736665722063616c6c6572206973206e6f742060008301527f6f776e6572206e6f7220617070726f76656400000000000000000000000000006020830152604082019050919050565b6000612412602383612af1565b91507f455243313135353a206275726e2066726f6d20746865207a65726f206164647260008301527f65737300000000000000000000000000000000000000000000000000000000006020830152604082019050919050565b6000612478602a83612af1565b91507f455243313135353a20696e73756666696369656e742062616c616e636520666f60008301527f72207472616e73666572000000000000000000000000000000000000000000006020830152604082019050919050565b60006124de602083612af1565b91507f4f776e61626c653a2063616c6c6572206973206e6f7420746865206f776e65726000830152602082019050919050565b600061251e602983612af1565b91507f455243313135353a2073657474696e6720617070726f76616c2073746174757360008301527f20666f722073656c6600000000000000000000000000000000000000000000006020830152604082019050919050565b6000612584602983612af1565b91507f455243313135353a206163636f756e747320616e6420696473206c656e67746860008301527f206d69736d6174636800000000000000000000000000000000000000000000006020830152604082019050919050565b60006125ea602883612af1565b91507f455243313135353a2069647320616e6420616d6f756e7473206c656e6774682060008301527f6d69736d617463680000000000000000000000000000000000000000000000006020830152604082019050919050565b61264c81612bc2565b82525050565b61265b81612bc2565b82525050565b60006020820190506126766000830184611fe7565b92915050565b600060a0820190506126916000830188611fe7565b61269e6020830187611fe7565b81810360408301526126b08186611ff6565b905081810360608301526126c48185611ff6565b905081810360808301526126d88184612063565b90509695505050505050565b600060a0820190506126f96000830188611fe7565b6127066020830187611fe7565b6127136040830186612652565b6127206060830185612652565b81810360808301526127328184612063565b90509695505050505050565b600060208201905081810360008301526127588184611ff6565b905092915050565b6000604082019050818103600083015261277a8185611ff6565b9050818103602083015261278e8184611ff6565b90509392505050565b60006020820190506127ac6000830184612054565b92915050565b600060208201905081810360008301526127cc818461209c565b905092915050565b600060208201905081810360008301526127ed816120d5565b9050919050565b6000602082019050818103600083015261280d8161213b565b9050919050565b6000602082019050818103600083015261282d816121a1565b9050919050565b6000602082019050818103600083015261284d81612207565b9050919050565b6000602082019050818103600083015261286d8161226d565b9050919050565b6000602082019050818103600083015261288d816122d3565b9050919050565b600060208201905081810360008301526128ad81612339565b9050919050565b600060208201905081810360008301526128cd8161239f565b9050919050565b600060208201905081810360008301526128ed81612405565b9050919050565b6000602082019050818103600083015261290d8161246b565b9050919050565b6000602082019050818103600083015261292d816124d1565b9050919050565b6000602082019050818103600083015261294d81612511565b9050919050565b6000602082019050818103600083015261296d81612577565b9050919050565b6000602082019050818103600083015261298d816125dd565b9050919050565b60006020820190506129a96000830184612652565b92915050565b60006040820190506129c46000830185612652565b6129d16020830184612652565b9392505050565b6000604051905081810181811067ffffffffffffffff821117156129ff576129fe612ce7565b5b8060405250919050565b600067ffffffffffffffff821115612a2457612a23612ce7565b5b602082029050602081019050919050565b600067ffffffffffffffff821115612a5057612a4f612ce7565b5b602082029050602081019050919050565b600067ffffffffffffffff821115612a7c57612a7b612ce7565b5b601f19601f8301169050602081019050919050565b6000819050602082019050919050565b600081519050919050565b600081519050919050565b600081519050919050565b6000602082019050919050565b600082825260208201905092915050565b600082825260208201905092915050565b600082825260208201905092915050565b6000612b0d82612bc2565b9150612b1883612bc2565b9250827fffffffffffffffffffffffffffffffffffffffffffffffffffffffffffffffff03821115612b4d57612b4c612c89565b5b828201905092915050565b6000612b6382612ba2565b9050919050565b60008115159050919050565b60007fffffffff0000000000000000000000000000000000000000000000000000000082169050919050565b600073ffffffffffffffffffffffffffffffffffffffff82169050919050565b6000819050919050565b82818337600083830152505050565b60005b83811015612bf9578082015181840152602081019050612bde565b83811115612c08576000848401525b50505050565b60006002820490506001821680612c2657607f821691505b60208210811415612c3a57612c39612cb8565b5b50919050565b6000612c4b82612bc2565b91507fffffffffffffffffffffffffffffffffffffffffffffffffffffffffffffffff821415612c7e57612c7d612c89565b5b600182019050919050565b7f4e487b7100000000000000000000000000000000000000000000000000000000600052601160045260246000fd5b7f4e487b7100000000000000000000000000000000000000000000000000000000600052602260045260246000fd5b7f4e487b7100000000000000000000000000000000000000000000000000000000600052604160045260246000fd5b6000601f19601f8301169050919050565b60008160e01c9050919050565b600060443d1015612d4457612de7565b60046000803e612d55600051612d27565b6308c379a08114612d665750612de7565b60405160043d036004823e80513d602482011167ffffffffffffffff82111715612d9257505050612de7565b808201805167ffffffffffffffff811115612db1575050505050612de7565b8060208301013d8501811115612dcc57505050505050612de7565b612dd582612d16565b60208401016040528296505050505050505b90565b612df381612b58565b8114612dfe57600080fd5b50565b612e0a81612b6a565b8114612e1557600080fd5b50565b612e2181612b76565b8114612e2c57600080fd5b50565b612e3881612bc2565b8114612e4357600080fd5b5056fea26469706673582212209b2993ee703bd2f210e10e6752dd6357e0412028148cc0854dd7205fb65a2bf564736f6c6343000800003368747470733a2f2f316d39737776326b6e666d322e7573656d6f72616c69732e636f6d2f7b69647d2e6a736f6e",
  "immutableReferences": {},
  "source": "pragma solidity ^0.8.0;\r\n\r\nimport \"@openzeppelin/contracts/token/ERC1155/ERC1155.sol\";\r\nimport \"@openzeppelin/contracts/access/Ownable.sol\";\r\n\r\ncontract NTFContract is ERC1155, Ownable {\r\n\r\n    uint256 public constant ARTWORK=0;\r\n    uint256 public constant PHOTO=1;\r\n\r\n    constructor() ERC1155(\"https://1m9swv2knfm2.usemoralis.com/{id}.json\"){\r\n        _mint(msg.sender, ARTWORK, 1, \"\");\r\n        _mint(msg.sender, PHOTO, 2, \"\");\r\n    }\r\n\r\n    function mint(address account, uint256 id, uint256 amount) public onlyOwner{\r\n\r\n    }\r\n\r\n    function burn(address account, uint256 id, uint256 amount) public{\r\n        require(msg.sender == account);\r\n        _burn(account, id, amount);\r\n    }\r\n\r\n}",
  "sourcePath": "C:\\Workspace\\4. Blockchain\\nft-erc1155\\contracts\\OpenseaNft.sol",
  "compiler": {
    "name": "solc",
    "version": "0.8.0+commit.c7dfd78e.Emscripten.clang"
  },
  "schemaVersion": "3.4.3",
  "updatedAt": "2021-11-04T00:45:15.677Z",
  "networkType": "ethereum",
  "devdoc": {
    "kind": "dev",
    "methods": {
      "balanceOf(address,uint256)": {
        "details": "See {IERC1155-balanceOf}. Requirements: - `account` cannot be the zero address."
      },
      "balanceOfBatch(address[],uint256[])": {
        "details": "See {IERC1155-balanceOfBatch}. Requirements: - `accounts` and `ids` must have the same length."
      },
      "isApprovedForAll(address,address)": {
        "details": "See {IERC1155-isApprovedForAll}."
      },
      "owner()": {
        "details": "Returns the address of the current owner."
      },
      "renounceOwnership()": {
        "details": "Leaves the contract without owner. It will not be possible to call `onlyOwner` functions anymore. Can only be called by the current owner. NOTE: Renouncing ownership will leave the contract without an owner, thereby removing any functionality that is only available to the owner."
      },
      "safeBatchTransferFrom(address,address,uint256[],uint256[],bytes)": {
        "details": "See {IERC1155-safeBatchTransferFrom}."
      },
      "safeTransferFrom(address,address,uint256,uint256,bytes)": {
        "details": "See {IERC1155-safeTransferFrom}."
      },
      "setApprovalForAll(address,bool)": {
        "details": "See {IERC1155-setApprovalForAll}."
      },
      "supportsInterface(bytes4)": {
        "details": "See {IERC165-supportsInterface}."
      },
      "transferOwnership(address)": {
        "details": "Transfers ownership of the contract to a new account (`newOwner`). Can only be called by the current owner."
      },
      "uri(uint256)": {
        "details": "See {IERC1155MetadataURI-uri}. This implementation returns the same URI for *all* token types. It relies on the token type ID substitution mechanism https://eips.ethereum.org/EIPS/eip-1155#metadata[defined in the EIP]. Clients calling this function must replace the `\\{id\\}` substring with the actual token type ID."
      }
    },
    "version": 1
  },
  "userdoc": {
    "kind": "user",
    "methods": {},
    "version": 1
  }
}